{
  "_format": "hh-sol-artifact-1",
  "contractName": "UnistoryNFT",
  "sourceName": "contracts/UnistoryNFT.sol",
  "abi": [
    {
      "inputs": [
        {
          "internalType": "uint256",
          "name": "userMaxTotalSupply",
          "type": "uint256"
        }
      ],
      "stateMutability": "nonpayable",
      "type": "constructor"
    },
    {
      "inputs": [
        {
          "internalType": "address",
          "name": "sender",
          "type": "address"
        },
        {
          "internalType": "uint256",
          "name": "tokenId",
          "type": "uint256"
        },
        {
          "internalType": "address",
          "name": "owner",
          "type": "address"
        }
      ],
      "name": "ERC721IncorrectOwner",
      "type": "error"
    },
    {
      "inputs": [
        {
          "internalType": "address",
          "name": "operator",
          "type": "address"
        },
        {
          "internalType": "uint256",
          "name": "tokenId",
          "type": "uint256"
        }
      ],
      "name": "ERC721InsufficientApproval",
      "type": "error"
    },
    {
      "inputs": [
        {
          "internalType": "address",
          "name": "approver",
          "type": "address"
        }
      ],
      "name": "ERC721InvalidApprover",
      "type": "error"
    },
    {
      "inputs": [
        {
          "internalType": "address",
          "name": "operator",
          "type": "address"
        }
      ],
      "name": "ERC721InvalidOperator",
      "type": "error"
    },
    {
      "inputs": [
        {
          "internalType": "address",
          "name": "owner",
          "type": "address"
        }
      ],
      "name": "ERC721InvalidOwner",
      "type": "error"
    },
    {
      "inputs": [
        {
          "internalType": "address",
          "name": "receiver",
          "type": "address"
        }
      ],
      "name": "ERC721InvalidReceiver",
      "type": "error"
    },
    {
      "inputs": [
        {
          "internalType": "address",
          "name": "sender",
          "type": "address"
        }
      ],
      "name": "ERC721InvalidSender",
      "type": "error"
    },
    {
      "inputs": [
        {
          "internalType": "uint256",
          "name": "tokenId",
          "type": "uint256"
        }
      ],
      "name": "ERC721NonexistentToken",
      "type": "error"
    },
    {
      "inputs": [
        {
          "internalType": "address",
          "name": "owner",
          "type": "address"
        }
      ],
      "name": "OwnableInvalidOwner",
      "type": "error"
    },
    {
      "inputs": [
        {
          "internalType": "address",
          "name": "account",
          "type": "address"
        }
      ],
      "name": "OwnableUnauthorizedAccount",
      "type": "error"
    },
    {
      "anonymous": false,
      "inputs": [
        {
          "indexed": true,
          "internalType": "address",
          "name": "owner",
          "type": "address"
        },
        {
          "indexed": true,
          "internalType": "address",
          "name": "approved",
          "type": "address"
        },
        {
          "indexed": true,
          "internalType": "uint256",
          "name": "tokenId",
          "type": "uint256"
        }
      ],
      "name": "Approval",
      "type": "event"
    },
    {
      "anonymous": false,
      "inputs": [
        {
          "indexed": true,
          "internalType": "address",
          "name": "owner",
          "type": "address"
        },
        {
          "indexed": true,
          "internalType": "address",
          "name": "operator",
          "type": "address"
        },
        {
          "indexed": false,
          "internalType": "bool",
          "name": "approved",
          "type": "bool"
        }
      ],
      "name": "ApprovalForAll",
      "type": "event"
    },
    {
      "anonymous": false,
      "inputs": [
        {
          "indexed": true,
          "internalType": "address",
          "name": "previousOwner",
          "type": "address"
        },
        {
          "indexed": true,
          "internalType": "address",
          "name": "newOwner",
          "type": "address"
        }
      ],
      "name": "OwnershipTransferred",
      "type": "event"
    },
    {
      "anonymous": false,
      "inputs": [
        {
          "indexed": true,
          "internalType": "address",
          "name": "from",
          "type": "address"
        },
        {
          "indexed": true,
          "internalType": "address",
          "name": "to",
          "type": "address"
        },
        {
          "indexed": true,
          "internalType": "uint256",
          "name": "tokenId",
          "type": "uint256"
        }
      ],
      "name": "Transfer",
      "type": "event"
    },
    {
      "inputs": [],
      "name": "PRICE",
      "outputs": [
        {
          "internalType": "uint256",
          "name": "",
          "type": "uint256"
        }
      ],
      "stateMutability": "view",
      "type": "function"
    },
    {
      "inputs": [
        {
          "internalType": "address",
          "name": "to",
          "type": "address"
        },
        {
          "internalType": "uint256",
          "name": "tokenId",
          "type": "uint256"
        }
      ],
      "name": "approve",
      "outputs": [],
      "stateMutability": "nonpayable",
      "type": "function"
    },
    {
      "inputs": [
        {
          "internalType": "address",
          "name": "owner",
          "type": "address"
        }
      ],
      "name": "balanceOf",
      "outputs": [
        {
          "internalType": "uint256",
          "name": "",
          "type": "uint256"
        }
      ],
      "stateMutability": "view",
      "type": "function"
    },
    {
      "inputs": [
        {
          "internalType": "uint256",
          "name": "tokenId",
          "type": "uint256"
        }
      ],
      "name": "getApproved",
      "outputs": [
        {
          "internalType": "address",
          "name": "",
          "type": "address"
        }
      ],
      "stateMutability": "view",
      "type": "function"
    },
    {
      "inputs": [
        {
          "internalType": "address",
          "name": "owner",
          "type": "address"
        },
        {
          "internalType": "address",
          "name": "operator",
          "type": "address"
        }
      ],
      "name": "isApprovedForAll",
      "outputs": [
        {
          "internalType": "bool",
          "name": "",
          "type": "bool"
        }
      ],
      "stateMutability": "view",
      "type": "function"
    },
    {
      "inputs": [],
      "name": "maxTotalSupply",
      "outputs": [
        {
          "internalType": "uint256",
          "name": "",
          "type": "uint256"
        }
      ],
      "stateMutability": "view",
      "type": "function"
    },
    {
      "inputs": [
        {
          "internalType": "uint256",
          "name": "amount",
          "type": "uint256"
        },
        {
          "internalType": "address",
          "name": "receiver",
          "type": "address"
        }
      ],
      "name": "mint",
      "outputs": [],
      "stateMutability": "payable",
      "type": "function"
    },
    {
      "inputs": [],
      "name": "name",
      "outputs": [
        {
          "internalType": "string",
          "name": "",
          "type": "string"
        }
      ],
      "stateMutability": "view",
      "type": "function"
    },
    {
      "inputs": [],
      "name": "owner",
      "outputs": [
        {
          "internalType": "address",
          "name": "",
          "type": "address"
        }
      ],
      "stateMutability": "view",
      "type": "function"
    },
    {
      "inputs": [
        {
          "internalType": "uint256",
          "name": "tokenId",
          "type": "uint256"
        }
      ],
      "name": "ownerOf",
      "outputs": [
        {
          "internalType": "address",
          "name": "",
          "type": "address"
        }
      ],
      "stateMutability": "view",
      "type": "function"
    },
    {
      "inputs": [],
      "name": "renounceOwnership",
      "outputs": [],
      "stateMutability": "nonpayable",
      "type": "function"
    },
    {
      "inputs": [
        {
          "internalType": "address",
          "name": "from",
          "type": "address"
        },
        {
          "internalType": "address",
          "name": "to",
          "type": "address"
        },
        {
          "internalType": "uint256",
          "name": "tokenId",
          "type": "uint256"
        }
      ],
      "name": "safeTransferFrom",
      "outputs": [],
      "stateMutability": "nonpayable",
      "type": "function"
    },
    {
      "inputs": [
        {
          "internalType": "address",
          "name": "from",
          "type": "address"
        },
        {
          "internalType": "address",
          "name": "to",
          "type": "address"
        },
        {
          "internalType": "uint256",
          "name": "tokenId",
          "type": "uint256"
        },
        {
          "internalType": "bytes",
          "name": "data",
          "type": "bytes"
        }
      ],
      "name": "safeTransferFrom",
      "outputs": [],
      "stateMutability": "nonpayable",
      "type": "function"
    },
    {
      "inputs": [
        {
          "internalType": "address",
          "name": "operator",
          "type": "address"
        },
        {
          "internalType": "bool",
          "name": "approved",
          "type": "bool"
        }
      ],
      "name": "setApprovalForAll",
      "outputs": [],
      "stateMutability": "nonpayable",
      "type": "function"
    },
    {
      "inputs": [
        {
          "internalType": "bytes4",
          "name": "interfaceId",
          "type": "bytes4"
        }
      ],
      "name": "supportsInterface",
      "outputs": [
        {
          "internalType": "bool",
          "name": "",
          "type": "bool"
        }
      ],
      "stateMutability": "view",
      "type": "function"
    },
    {
      "inputs": [],
      "name": "symbol",
      "outputs": [
        {
          "internalType": "string",
          "name": "",
          "type": "string"
        }
      ],
      "stateMutability": "view",
      "type": "function"
    },
    {
      "inputs": [
        {
          "internalType": "uint256",
          "name": "tokenId",
          "type": "uint256"
        }
      ],
      "name": "tokenURI",
      "outputs": [
        {
          "internalType": "string",
          "name": "",
          "type": "string"
        }
      ],
      "stateMutability": "view",
      "type": "function"
    },
    {
      "inputs": [
        {
          "internalType": "address",
          "name": "from",
          "type": "address"
        },
        {
          "internalType": "address",
          "name": "to",
          "type": "address"
        },
        {
          "internalType": "uint256",
          "name": "tokenId",
          "type": "uint256"
        }
      ],
      "name": "transferFrom",
      "outputs": [],
      "stateMutability": "nonpayable",
      "type": "function"
    },
    {
      "inputs": [
        {
          "internalType": "address",
          "name": "newOwner",
          "type": "address"
        }
      ],
      "name": "transferOwnership",
      "outputs": [],
      "stateMutability": "nonpayable",
      "type": "function"
    },
    {
      "inputs": [
        {
          "internalType": "uint256",
          "name": "amount",
          "type": "uint256"
        },
        {
          "internalType": "address payable",
          "name": "receiver",
          "type": "address"
        }
      ],
      "name": "withdraw",
      "outputs": [],
      "stateMutability": "nonpayable",
      "type": "function"
    }
  ],
  "bytecode": "0x60a0604052620f424060085534801561001757600080fd5b50604051612f5a380380612f5a83398181016040528101906100399190610259565b336040518060400160405280600b81526020017f556e6973746f72794e46540000000000000000000000000000000000000000008152506040518060400160405280600181526020017f550000000000000000000000000000000000000000000000000000000000000081525081600090816100b591906104cc565b5080600190816100c591906104cc565b505050600073ffffffffffffffffffffffffffffffffffffffff168173ffffffffffffffffffffffffffffffffffffffff160361013a5760006040517f1e4fbdf700000000000000000000000000000000000000000000000000000000815260040161013191906105df565b60405180910390fd5b6101498161015860201b60201c565b508060808181525050506105fa565b6000600660009054906101000a900473ffffffffffffffffffffffffffffffffffffffff16905081600660006101000a81548173ffffffffffffffffffffffffffffffffffffffff021916908373ffffffffffffffffffffffffffffffffffffffff1602179055508173ffffffffffffffffffffffffffffffffffffffff168173ffffffffffffffffffffffffffffffffffffffff167f8be0079c531659141344cd1fd0a4f28419497f9722a3daafe3b4186f6b6457e060405160405180910390a35050565b600080fd5b6000819050919050565b61023681610223565b811461024157600080fd5b50565b6000815190506102538161022d565b92915050565b60006020828403121561026f5761026e61021e565b5b600061027d84828501610244565b91505092915050565b600081519050919050565b7f4e487b7100000000000000000000000000000000000000000000000000000000600052604160045260246000fd5b7f4e487b7100000000000000000000000000000000000000000000000000000000600052602260045260246000fd5b6000600282049050600182168061030757607f821691505b60208210810361031a576103196102c0565b5b50919050565b60008190508160005260206000209050919050565b60006020601f8301049050919050565b600082821b905092915050565b6000600883026103827fffffffffffffffffffffffffffffffffffffffffffffffffffffffffffffffff82610345565b61038c8683610345565b95508019841693508086168417925050509392505050565b6000819050919050565b60006103c96103c46103bf84610223565b6103a4565b610223565b9050919050565b6000819050919050565b6103e3836103ae565b6103f76103ef826103d0565b848454610352565b825550505050565b600090565b61040c6103ff565b6104178184846103da565b505050565b5b8181101561043b57610430600082610404565b60018101905061041d565b5050565b601f8211156104805761045181610320565b61045a84610335565b81016020851015610469578190505b61047d61047585610335565b83018261041c565b50505b505050565b600082821c905092915050565b60006104a360001984600802610485565b1980831691505092915050565b60006104bc8383610492565b9150826002028217905092915050565b6104d582610286565b67ffffffffffffffff8111156104ee576104ed610291565b5b6104f882546102ef565b61050382828561043f565b600060209050601f8311600181146105365760008415610524578287015190505b61052e85826104b0565b865550610596565b601f19841661054486610320565b60005b8281101561056c57848901518255600182019150602085019450602081019050610547565b868310156105895784890151610585601f891682610492565b8355505b6001600288020188555050505b505050505050565b600073ffffffffffffffffffffffffffffffffffffffff82169050919050565b60006105c98261059e565b9050919050565b6105d9816105be565b82525050565b60006020820190506105f460008301846105d0565b92915050565b60805161293e61061c600039600081816108240152610a7a015261293e6000f3fe60806040526004361061011e5760003560e01c8063715018a6116100a0578063a22cb46511610064578063a22cb465146103c5578063b88d4fde146103ee578063c87b56dd14610417578063e985e9c514610454578063f2fde38b146104915761011e565b8063715018a6146103115780638d859f3e146103285780638da5cb5b1461035357806394bf804d1461037e57806395d89b411461039a5761011e565b806323b872dd116100e757806323b872dd1461021a5780632ab4d0521461024357806342842e0e1461026e5780636352211e1461029757806370a08231146102d45761011e565b8062f714ce1461012357806301ffc9a71461014c57806306fdde0314610189578063081812fc146101b4578063095ea7b3146101f1575b600080fd5b34801561012f57600080fd5b5061014a60048036038101906101459190611cff565b6104ba565b005b34801561015857600080fd5b50610173600480360381019061016e9190611d97565b61057a565b6040516101809190611ddf565b60405180910390f35b34801561019557600080fd5b5061019e61065c565b6040516101ab9190611e8a565b60405180910390f35b3480156101c057600080fd5b506101db60048036038101906101d69190611eac565b6106ee565b6040516101e89190611efa565b60405180910390f35b3480156101fd57600080fd5b5061021860048036038101906102139190611f41565b61070a565b005b34801561022657600080fd5b50610241600480360381019061023c9190611f81565b610720565b005b34801561024f57600080fd5b50610258610822565b6040516102659190611fe3565b60405180910390f35b34801561027a57600080fd5b5061029560048036038101906102909190611f81565b610846565b005b3480156102a357600080fd5b506102be60048036038101906102b99190611eac565b610866565b6040516102cb9190611efa565b60405180910390f35b3480156102e057600080fd5b506102fb60048036038101906102f69190611ffe565b610878565b6040516103089190611fe3565b60405180910390f35b34801561031d57600080fd5b50610326610932565b005b34801561033457600080fd5b5061033d610946565b60405161034a9190611fe3565b60405180910390f35b34801561035f57600080fd5b5061036861094c565b6040516103759190611efa565b60405180910390f35b6103986004803603810190610393919061202b565b610976565b005b3480156103a657600080fd5b506103af610b0d565b6040516103bc9190611e8a565b60405180910390f35b3480156103d157600080fd5b506103ec60048036038101906103e79190612097565b610b9f565b005b3480156103fa57600080fd5b506104156004803603810190610410919061220c565b610bb5565b005b34801561042357600080fd5b5061043e60048036038101906104399190611eac565b610bd2565b60405161044b9190611e8a565b60405180910390f35b34801561046057600080fd5b5061047b6004803603810190610476919061228f565b610c3b565b6040516104889190611ddf565b60405180910390f35b34801561049d57600080fd5b506104b860048036038101906104b39190611ffe565b610ccf565b005b6104c2610d55565b4782106104ce47610ddc565b6040516020016104de919061237d565b6040516020818303038152906040529061052e576040517f08c379a00000000000000000000000000000000000000000000000000000000081526004016105259190611e8a565b60405180910390fd5b508073ffffffffffffffffffffffffffffffffffffffff166108fc839081150290604051600060405180830381858888f19350505050158015610575573d6000803e3d6000fd5b505050565b60007f80ac58cd000000000000000000000000000000000000000000000000000000007bffffffffffffffffffffffffffffffffffffffffffffffffffffffff1916827bffffffffffffffffffffffffffffffffffffffffffffffffffffffff1916148061064557507f5b5e139f000000000000000000000000000000000000000000000000000000007bffffffffffffffffffffffffffffffffffffffffffffffffffffffff1916827bffffffffffffffffffffffffffffffffffffffffffffffffffffffff1916145b80610655575061065482610eaa565b5b9050919050565b60606000805461066b906123ce565b80601f0160208091040260200160405190810160405280929190818152602001828054610697906123ce565b80156106e45780601f106106b9576101008083540402835291602001916106e4565b820191906000526020600020905b8154815290600101906020018083116106c757829003601f168201915b5050505050905090565b60006106f982610f14565b5061070382610f9c565b9050919050565b61071c8282610717610fd9565b610fe1565b5050565b600073ffffffffffffffffffffffffffffffffffffffff168273ffffffffffffffffffffffffffffffffffffffff16036107925760006040517f64a0ae920000000000000000000000000000000000000000000000000000000081526004016107899190611efa565b60405180910390fd5b60006107a683836107a1610fd9565b610ff3565b90508373ffffffffffffffffffffffffffffffffffffffff168173ffffffffffffffffffffffffffffffffffffffff161461081c578382826040517f64283d7b000000000000000000000000000000000000000000000000000000008152600401610813939291906123ff565b60405180910390fd5b50505050565b7f000000000000000000000000000000000000000000000000000000000000000081565b61086183838360405180602001604052806000815250610bb5565b505050565b600061087182610f14565b9050919050565b60008073ffffffffffffffffffffffffffffffffffffffff168273ffffffffffffffffffffffffffffffffffffffff16036108eb5760006040517f89c62b640000000000000000000000000000000000000000000000000000000081526004016108e29190611efa565b60405180910390fd5b600360008373ffffffffffffffffffffffffffffffffffffffff1673ffffffffffffffffffffffffffffffffffffffff168152602001908152602001600020549050919050565b61093a610d55565b610944600061120d565b565b60085481565b6000600660009054906101000a900473ffffffffffffffffffffffffffffffffffffffff16905090565b816008546109849190612465565b8173ffffffffffffffffffffffffffffffffffffffff163110156109dd576040517f08c379a00000000000000000000000000000000000000000000000000000000081526004016109d490612519565b60405180910390fd5b6003821115610a21576040517f08c379a0000000000000000000000000000000000000000000000000000000008152600401610a18906125ab565b60405180910390fd5b600682610a2d83610878565b610a3791906125cb565b1115610a78576040517f08c379a0000000000000000000000000000000000000000000000000000000008152600401610a6f90612671565b60405180910390fd5b7f000000000000000000000000000000000000000000000000000000000000000082600754610aa791906125cb565b10610ae7576040517f08c379a0000000000000000000000000000000000000000000000000000000008152600401610ade906126dd565b60405180910390fd5b60005b82811015610b0857610afb826112d3565b8080600101915050610aea565b505050565b606060018054610b1c906123ce565b80601f0160208091040260200160405190810160405280929190818152602001828054610b48906123ce565b8015610b955780601f10610b6a57610100808354040283529160200191610b95565b820191906000526020600020905b815481529060010190602001808311610b7857829003601f168201915b5050505050905090565b610bb1610baa610fd9565b8383611304565b5050565b610bc0848484610720565b610bcc84848484611473565b50505050565b6060610bdd82610f14565b506000610be861162a565b90506000815111610c085760405180602001604052806000815250610c33565b80610c1284610ddc565b604051602001610c239291906126fd565b6040516020818303038152906040525b915050919050565b6000600560008473ffffffffffffffffffffffffffffffffffffffff1673ffffffffffffffffffffffffffffffffffffffff16815260200190815260200160002060008373ffffffffffffffffffffffffffffffffffffffff1673ffffffffffffffffffffffffffffffffffffffff16815260200190815260200160002060009054906101000a900460ff16905092915050565b610cd7610d55565b600073ffffffffffffffffffffffffffffffffffffffff168173ffffffffffffffffffffffffffffffffffffffff1603610d495760006040517f1e4fbdf7000000000000000000000000000000000000000000000000000000008152600401610d409190611efa565b60405180910390fd5b610d528161120d565b50565b610d5d610fd9565b73ffffffffffffffffffffffffffffffffffffffff16610d7b61094c565b73ffffffffffffffffffffffffffffffffffffffff1614610dda57610d9e610fd9565b6040517f118cdaa7000000000000000000000000000000000000000000000000000000008152600401610dd19190611efa565b60405180910390fd5b565b606060006001610deb8461164a565b01905060008167ffffffffffffffff811115610e0a57610e096120e1565b5b6040519080825280601f01601f191660200182016040528015610e3c5781602001600182028036833780820191505090505b509050600082602001820190505b600115610e9f578080600190039150507f3031323334353637383961626364656600000000000000000000000000000000600a86061a8153600a8581610e9357610e92612721565b5b04945060008503610e4a575b819350505050919050565b60007f01ffc9a7000000000000000000000000000000000000000000000000000000007bffffffffffffffffffffffffffffffffffffffffffffffffffffffff1916827bffffffffffffffffffffffffffffffffffffffffffffffffffffffff1916149050919050565b600080610f208361179d565b9050600073ffffffffffffffffffffffffffffffffffffffff168173ffffffffffffffffffffffffffffffffffffffff1603610f9357826040517f7e273289000000000000000000000000000000000000000000000000000000008152600401610f8a9190611fe3565b60405180910390fd5b80915050919050565b60006004600083815260200190815260200160002060009054906101000a900473ffffffffffffffffffffffffffffffffffffffff169050919050565b600033905090565b610fee83838360016117da565b505050565b600080610fff8461179d565b9050600073ffffffffffffffffffffffffffffffffffffffff168373ffffffffffffffffffffffffffffffffffffffff16146110415761104081848661199f565b5b600073ffffffffffffffffffffffffffffffffffffffff168173ffffffffffffffffffffffffffffffffffffffff16146110d2576110836000856000806117da565b6001600360008373ffffffffffffffffffffffffffffffffffffffff1673ffffffffffffffffffffffffffffffffffffffff168152602001908152602001600020600082825403925050819055505b600073ffffffffffffffffffffffffffffffffffffffff168573ffffffffffffffffffffffffffffffffffffffff1614611155576001600360008773ffffffffffffffffffffffffffffffffffffffff1673ffffffffffffffffffffffffffffffffffffffff168152602001908152602001600020600082825401925050819055505b846002600086815260200190815260200160002060006101000a81548173ffffffffffffffffffffffffffffffffffffffff021916908373ffffffffffffffffffffffffffffffffffffffff160217905550838573ffffffffffffffffffffffffffffffffffffffff168273ffffffffffffffffffffffffffffffffffffffff167fddf252ad1be2c89b69c2b068fc378daa952ba7f163c4a11628f55a4df523b3ef60405160405180910390a4809150509392505050565b6000600660009054906101000a900473ffffffffffffffffffffffffffffffffffffffff16905081600660006101000a81548173ffffffffffffffffffffffffffffffffffffffff021916908373ffffffffffffffffffffffffffffffffffffffff1602179055508173ffffffffffffffffffffffffffffffffffffffff168173ffffffffffffffffffffffffffffffffffffffff167f8be0079c531659141344cd1fd0a4f28419497f9722a3daafe3b4186f6b6457e060405160405180910390a35050565b6112db610d55565b6000600760008154809291906112f090612750565b9190505590506113008282611a63565b5050565b600073ffffffffffffffffffffffffffffffffffffffff168273ffffffffffffffffffffffffffffffffffffffff160361137557816040517f5b08ba1800000000000000000000000000000000000000000000000000000000815260040161136c9190611efa565b60405180910390fd5b80600560008573ffffffffffffffffffffffffffffffffffffffff1673ffffffffffffffffffffffffffffffffffffffff16815260200190815260200160002060008473ffffffffffffffffffffffffffffffffffffffff1673ffffffffffffffffffffffffffffffffffffffff16815260200190815260200160002060006101000a81548160ff0219169083151502179055508173ffffffffffffffffffffffffffffffffffffffff168373ffffffffffffffffffffffffffffffffffffffff167f17307eab39ab6107e8899845ad3d59bd9653f200f220920489ca2b5937696c31836040516114669190611ddf565b60405180910390a3505050565b60008373ffffffffffffffffffffffffffffffffffffffff163b1115611624578273ffffffffffffffffffffffffffffffffffffffff1663150b7a026114b7610fd9565b8685856040518563ffffffff1660e01b81526004016114d994939291906127ed565b6020604051808303816000875af192505050801561151557506040513d601f19601f82011682018060405250810190611512919061284e565b60015b611599573d8060008114611545576040519150601f19603f3d011682016040523d82523d6000602084013e61154a565b606091505b50600081510361159157836040517f64a0ae920000000000000000000000000000000000000000000000000000000081526004016115889190611efa565b60405180910390fd5b805181602001fd5b63150b7a0260e01b7bffffffffffffffffffffffffffffffffffffffffffffffffffffffff1916817bffffffffffffffffffffffffffffffffffffffffffffffffffffffff19161461162257836040517f64a0ae920000000000000000000000000000000000000000000000000000000081526004016116199190611efa565b60405180910390fd5b505b50505050565b60606040518060a00160405280606481526020016128a560649139905090565b600080600090507a184f03e93ff9f4daa797ed6e38ed64bf6a1f01000000000000000083106116a8577a184f03e93ff9f4daa797ed6e38ed64bf6a1f010000000000000000838161169e5761169d612721565b5b0492506040810190505b6d04ee2d6d415b85acef810000000083106116e5576d04ee2d6d415b85acef810000000083816116db576116da612721565b5b0492506020810190505b662386f26fc10000831061171457662386f26fc10000838161170a57611709612721565b5b0492506010810190505b6305f5e100831061173d576305f5e100838161173357611732612721565b5b0492506008810190505b612710831061176257612710838161175857611757612721565b5b0492506004810190505b60648310611785576064838161177b5761177a612721565b5b0492506002810190505b600a8310611794576001810190505b80915050919050565b60006002600083815260200190815260200160002060009054906101000a900473ffffffffffffffffffffffffffffffffffffffff169050919050565b80806118135750600073ffffffffffffffffffffffffffffffffffffffff168273ffffffffffffffffffffffffffffffffffffffff1614155b1561194757600061182384610f14565b9050600073ffffffffffffffffffffffffffffffffffffffff168373ffffffffffffffffffffffffffffffffffffffff161415801561188e57508273ffffffffffffffffffffffffffffffffffffffff168173ffffffffffffffffffffffffffffffffffffffff1614155b80156118a1575061189f8184610c3b565b155b156118e357826040517fa9fbf51f0000000000000000000000000000000000000000000000000000000081526004016118da9190611efa565b60405180910390fd5b811561194557838573ffffffffffffffffffffffffffffffffffffffff168273ffffffffffffffffffffffffffffffffffffffff167f8c5be1e5ebec7d5bd14f71427d1e84f3dd0314c0f7b2291e5b200ac8c7c3b92560405160405180910390a45b505b836004600085815260200190815260200160002060006101000a81548173ffffffffffffffffffffffffffffffffffffffff021916908373ffffffffffffffffffffffffffffffffffffffff16021790555050505050565b6119aa838383611a81565b611a5e57600073ffffffffffffffffffffffffffffffffffffffff168373ffffffffffffffffffffffffffffffffffffffff1603611a1f57806040517f7e273289000000000000000000000000000000000000000000000000000000008152600401611a169190611fe3565b60405180910390fd5b81816040517f177e802f000000000000000000000000000000000000000000000000000000008152600401611a5592919061287b565b60405180910390fd5b505050565b611a7d828260405180602001604052806000815250611b42565b5050565b60008073ffffffffffffffffffffffffffffffffffffffff168373ffffffffffffffffffffffffffffffffffffffff1614158015611b3957508273ffffffffffffffffffffffffffffffffffffffff168473ffffffffffffffffffffffffffffffffffffffff161480611afa5750611af98484610c3b565b5b80611b3857508273ffffffffffffffffffffffffffffffffffffffff16611b2083610f9c565b73ffffffffffffffffffffffffffffffffffffffff16145b5b90509392505050565b611b4c8383611b5e565b611b596000848484611473565b505050565b600073ffffffffffffffffffffffffffffffffffffffff168273ffffffffffffffffffffffffffffffffffffffff1603611bd05760006040517f64a0ae92000000000000000000000000000000000000000000000000000000008152600401611bc79190611efa565b60405180910390fd5b6000611bde83836000610ff3565b9050600073ffffffffffffffffffffffffffffffffffffffff168173ffffffffffffffffffffffffffffffffffffffff1614611c525760006040517f73c6ac6e000000000000000000000000000000000000000000000000000000008152600401611c499190611efa565b60405180910390fd5b505050565b6000604051905090565b600080fd5b600080fd5b6000819050919050565b611c7e81611c6b565b8114611c8957600080fd5b50565b600081359050611c9b81611c75565b92915050565b600073ffffffffffffffffffffffffffffffffffffffff82169050919050565b6000611ccc82611ca1565b9050919050565b611cdc81611cc1565b8114611ce757600080fd5b50565b600081359050611cf981611cd3565b92915050565b60008060408385031215611d1657611d15611c61565b5b6000611d2485828601611c8c565b9250506020611d3585828601611cea565b9150509250929050565b60007fffffffff0000000000000000000000000000000000000000000000000000000082169050919050565b611d7481611d3f565b8114611d7f57600080fd5b50565b600081359050611d9181611d6b565b92915050565b600060208284031215611dad57611dac611c61565b5b6000611dbb84828501611d82565b91505092915050565b60008115159050919050565b611dd981611dc4565b82525050565b6000602082019050611df46000830184611dd0565b92915050565b600081519050919050565b600082825260208201905092915050565b60005b83811015611e34578082015181840152602081019050611e19565b60008484015250505050565b6000601f19601f8301169050919050565b6000611e5c82611dfa565b611e668185611e05565b9350611e76818560208601611e16565b611e7f81611e40565b840191505092915050565b60006020820190508181036000830152611ea48184611e51565b905092915050565b600060208284031215611ec257611ec1611c61565b5b6000611ed084828501611c8c565b91505092915050565b6000611ee482611ca1565b9050919050565b611ef481611ed9565b82525050565b6000602082019050611f0f6000830184611eeb565b92915050565b611f1e81611ed9565b8114611f2957600080fd5b50565b600081359050611f3b81611f15565b92915050565b60008060408385031215611f5857611f57611c61565b5b6000611f6685828601611f2c565b9250506020611f7785828601611c8c565b9150509250929050565b600080600060608486031215611f9a57611f99611c61565b5b6000611fa886828701611f2c565b9350506020611fb986828701611f2c565b9250506040611fca86828701611c8c565b9150509250925092565b611fdd81611c6b565b82525050565b6000602082019050611ff86000830184611fd4565b92915050565b60006020828403121561201457612013611c61565b5b600061202284828501611f2c565b91505092915050565b6000806040838503121561204257612041611c61565b5b600061205085828601611c8c565b925050602061206185828601611f2c565b9150509250929050565b61207481611dc4565b811461207f57600080fd5b50565b6000813590506120918161206b565b92915050565b600080604083850312156120ae576120ad611c61565b5b60006120bc85828601611f2c565b92505060206120cd85828601612082565b9150509250929050565b600080fd5b600080fd5b7f4e487b7100000000000000000000000000000000000000000000000000000000600052604160045260246000fd5b61211982611e40565b810181811067ffffffffffffffff82111715612138576121376120e1565b5b80604052505050565b600061214b611c57565b90506121578282612110565b919050565b600067ffffffffffffffff821115612177576121766120e1565b5b61218082611e40565b9050602081019050919050565b82818337600083830152505050565b60006121af6121aa8461215c565b612141565b9050828152602081018484840111156121cb576121ca6120dc565b5b6121d684828561218d565b509392505050565b600082601f8301126121f3576121f26120d7565b5b813561220384826020860161219c565b91505092915050565b6000806000806080858703121561222657612225611c61565b5b600061223487828801611f2c565b945050602061224587828801611f2c565b935050604061225687828801611c8c565b925050606085013567ffffffffffffffff81111561227757612276611c66565b5b612283878288016121de565b91505092959194509250565b600080604083850312156122a6576122a5611c61565b5b60006122b485828601611f2c565b92505060206122c585828601611f2c565b9150509250929050565b600081905092915050565b7f596f752063616e74207472616e73666572206d6f7265207468656e20636f6e7460008201527f7261637420686176652e0a436f6e74726163742062616c616e63653a20000000602082015250565b6000612336603d836122cf565b9150612341826122da565b603d82019050919050565b600061235782611dfa565b61236181856122cf565b9350612371818560208601611e16565b80840191505092915050565b600061238882612329565b9150612394828461234c565b915081905092915050565b7f4e487b7100000000000000000000000000000000000000000000000000000000600052602260045260246000fd5b600060028204905060018216806123e657607f821691505b6020821081036123f9576123f861239f565b5b50919050565b60006060820190506124146000830186611eeb565b6124216020830185611fd4565b61242e6040830184611eeb565b949350505050565b7f4e487b7100000000000000000000000000000000000000000000000000000000600052601160045260246000fd5b600061247082611c6b565b915061247b83611c6b565b925082820261248981611c6b565b915082820484148315176124a05761249f612436565b5b5092915050565b7f4163636f756e74206d757374206861766520656e6f7567682065746820746f2060008201527f6d696e7420746f6b656e73000000000000000000000000000000000000000000602082015250565b6000612503602b83611e05565b915061250e826124a7565b604082019050919050565b60006020820190508181036000830152612532816124f6565b9050919050565b7f596f752063616e74206d696e74206d6f7265207468656e203320746f6b656e7360008201527f2061742074696d65000000000000000000000000000000000000000000000000602082015250565b6000612595602883611e05565b91506125a082612539565b604082019050919050565b600060208201905081810360008301526125c481612588565b9050919050565b60006125d682611c6b565b91506125e183611c6b565b92508282019050808211156125f9576125f8612436565b5b92915050565b7f4163636f756e742063616e742068617665206d6f7265207468656e203620746f60008201527f6b656e732061742074696d650000000000000000000000000000000000000000602082015250565b600061265b602c83611e05565b9150612666826125ff565b604082019050919050565b6000602082019050818103600083015261268a8161264e565b9050919050565b7f546f6b656e206c696d6974206578656564656400000000000000000000000000600082015250565b60006126c7601383611e05565b91506126d282612691565b602082019050919050565b600060208201905081810360008301526126f6816126ba565b9050919050565b6000612709828561234c565b9150612715828461234c565b91508190509392505050565b7f4e487b7100000000000000000000000000000000000000000000000000000000600052601260045260246000fd5b600061275b82611c6b565b91507fffffffffffffffffffffffffffffffffffffffffffffffffffffffffffffffff820361278d5761278c612436565b5b600182019050919050565b600081519050919050565b600082825260208201905092915050565b60006127bf82612798565b6127c981856127a3565b93506127d9818560208601611e16565b6127e281611e40565b840191505092915050565b60006080820190506128026000830187611eeb565b61280f6020830186611eeb565b61281c6040830185611fd4565b818103606083015261282e81846127b4565b905095945050505050565b60008151905061284881611d6b565b92915050565b60006020828403121561286457612863611c61565b5b600061287284828501612839565b91505092915050565b60006040820190506128906000830185611eeb565b61289d6020830184611fd4565b939250505056fe68747470733a2f2f62726f776e2d726174696f6e616c2d626f6f62792d3433312e6d7970696e6174612e636c6f75642f697066732f516d656a6769374c4c42614d54457a65414475694e635371615375586d715a62626a734e5961376e62777958586a2fa26469706673582212207cf9bd0966adabcc028a007d74f2f10ae71704ff3f4b651bbba1d7b942b2e39564736f6c634300081b0033",
  "linkReferences": {},
  "deployedLinkReferences": {}
}